{
  "address": "0xCf7Ed3AccA5a467e9e704C703E8D87F634fB0Fc9",
  "abi": [
    {
      "inputs": [
        {
          "internalType": "address[]",
          "name": "_owners",
          "type": "address[]"
        },
        {
          "internalType": "uint256",
          "name": "_numConfirmationsRequired",
          "type": "uint256"
        },
        {
          "internalType": "address",
          "name": "_usdtTokenAddress",
          "type": "address"
        }
      ],
      "stateMutability": "nonpayable",
      "type": "constructor"
    },
    {
      "anonymous": false,
      "inputs": [
        {
          "indexed": true,
          "internalType": "address",
          "name": "owner",
          "type": "address"
        },
        {
          "indexed": true,
          "internalType": "uint256",
          "name": "txIndex",
          "type": "uint256"
        }
      ],
      "name": "ConfirmTransaction",
      "type": "event"
    },
    {
      "anonymous": false,
      "inputs": [
        {
          "indexed": true,
          "internalType": "address",
          "name": "from",
          "type": "address"
        },
        {
          "indexed": false,
          "internalType": "uint256",
          "name": "amount",
          "type": "uint256"
        },
        {
          "indexed": false,
          "internalType": "uint256",
          "name": "timestamp",
          "type": "uint256"
        }
      ],
      "name": "Deposited",
      "type": "event"
    },
    {
      "anonymous": false,
      "inputs": [
        {
          "indexed": true,
          "internalType": "address",
          "name": "owner",
          "type": "address"
        },
        {
          "indexed": true,
          "internalType": "uint256",
          "name": "txIndex",
          "type": "uint256"
        }
      ],
      "name": "ExecuteTransaction",
      "type": "event"
    },
    {
      "anonymous": false,
      "inputs": [
        {
          "indexed": true,
          "internalType": "address",
          "name": "to",
          "type": "address"
        },
        {
          "indexed": false,
          "internalType": "uint256",
          "name": "amount",
          "type": "uint256"
        },
        {
          "indexed": false,
          "internalType": "uint256",
          "name": "timestamp",
          "type": "uint256"
        }
      ],
      "name": "Paid",
      "type": "event"
    },
    {
      "anonymous": false,
      "inputs": [
        {
          "indexed": true,
          "internalType": "address",
          "name": "owner",
          "type": "address"
        },
        {
          "indexed": true,
          "internalType": "uint256",
          "name": "txIndex",
          "type": "uint256"
        }
      ],
      "name": "RevokeConfirmation",
      "type": "event"
    },
    {
      "anonymous": false,
      "inputs": [
        {
          "indexed": true,
          "internalType": "address",
          "name": "owner",
          "type": "address"
        },
        {
          "indexed": true,
          "internalType": "uint256",
          "name": "txIndex",
          "type": "uint256"
        },
        {
          "indexed": true,
          "internalType": "address",
          "name": "to",
          "type": "address"
        },
        {
          "indexed": false,
          "internalType": "uint256",
          "name": "value",
          "type": "uint256"
        },
        {
          "indexed": false,
          "internalType": "string",
          "name": "reason",
          "type": "string"
        }
      ],
      "name": "SubmitTransaction",
      "type": "event"
    },
    {
      "inputs": [],
      "name": "DAILY_LIMIT",
      "outputs": [
        {
          "internalType": "uint256",
          "name": "",
          "type": "uint256"
        }
      ],
      "stateMutability": "view",
      "type": "function"
    },
    {
      "inputs": [],
      "name": "PRICE",
      "outputs": [
        {
          "internalType": "uint256",
          "name": "",
          "type": "uint256"
        }
      ],
      "stateMutability": "view",
      "type": "function"
    },
    {
      "inputs": [],
      "name": "SUPER_ADMIN",
      "outputs": [
        {
          "internalType": "address",
          "name": "",
          "type": "address"
        }
      ],
      "stateMutability": "view",
      "type": "function"
    },
    {
      "inputs": [
        {
          "internalType": "uint256",
          "name": "_txIndex",
          "type": "uint256"
        }
      ],
      "name": "confirmTransaction",
      "outputs": [],
      "stateMutability": "nonpayable",
      "type": "function"
    },
    {
      "inputs": [],
      "name": "dailySpent",
      "outputs": [
        {
          "internalType": "uint256",
          "name": "",
          "type": "uint256"
        }
      ],
      "stateMutability": "view",
      "type": "function"
    },
    {
      "inputs": [
        {
          "internalType": "uint256",
          "name": "amount",
          "type": "uint256"
        }
      ],
      "name": "deposit",
      "outputs": [],
      "stateMutability": "nonpayable",
      "type": "function"
    },
    {
      "inputs": [
        {
          "internalType": "uint256",
          "name": "_txIndex",
          "type": "uint256"
        }
      ],
      "name": "executeTransaction",
      "outputs": [],
      "stateMutability": "nonpayable",
      "type": "function"
    },
    {
      "inputs": [],
      "name": "getContractBalance",
      "outputs": [
        {
          "internalType": "uint256",
          "name": "",
          "type": "uint256"
        }
      ],
      "stateMutability": "view",
      "type": "function"
    },
    {
      "inputs": [],
      "name": "getOwners",
      "outputs": [
        {
          "internalType": "address[]",
          "name": "",
          "type": "address[]"
        }
      ],
      "stateMutability": "view",
      "type": "function"
    },
    {
      "inputs": [],
      "name": "getRemainingDailyQuota",
      "outputs": [
        {
          "internalType": "uint256",
          "name": "",
          "type": "uint256"
        }
      ],
      "stateMutability": "view",
      "type": "function"
    },
    {
      "inputs": [
        {
          "internalType": "uint256",
          "name": "_txIndex",
          "type": "uint256"
        }
      ],
      "name": "getTransaction",
      "outputs": [
        {
          "internalType": "address",
          "name": "",
          "type": "address"
        },
        {
          "internalType": "uint256",
          "name": "",
          "type": "uint256"
        },
        {
          "internalType": "bool",
          "name": "",
          "type": "bool"
        },
        {
          "internalType": "uint256",
          "name": "",
          "type": "uint256"
        },
        {
          "internalType": "uint256",
          "name": "",
          "type": "uint256"
        },
        {
          "internalType": "string",
          "name": "",
          "type": "string"
        }
      ],
      "stateMutability": "view",
      "type": "function"
    },
    {
      "inputs": [],
      "name": "getTransactionCount",
      "outputs": [
        {
          "internalType": "uint256",
          "name": "",
          "type": "uint256"
        }
      ],
      "stateMutability": "view",
      "type": "function"
    },
    {
      "inputs": [
        {
          "internalType": "uint256",
          "name": "",
          "type": "uint256"
        },
        {
          "internalType": "address",
          "name": "",
          "type": "address"
        }
      ],
      "name": "isConfirmed",
      "outputs": [
        {
          "internalType": "bool",
          "name": "",
          "type": "bool"
        }
      ],
      "stateMutability": "view",
      "type": "function"
    },
    {
      "inputs": [
        {
          "internalType": "address",
          "name": "",
          "type": "address"
        }
      ],
      "name": "isOwner",
      "outputs": [
        {
          "internalType": "bool",
          "name": "",
          "type": "bool"
        }
      ],
      "stateMutability": "view",
      "type": "function"
    },
    {
      "inputs": [],
      "name": "lastResetTimestamp",
      "outputs": [
        {
          "internalType": "uint256",
          "name": "",
          "type": "uint256"
        }
      ],
      "stateMutability": "view",
      "type": "function"
    },
    {
      "inputs": [],
      "name": "numConfirmationsRequired",
      "outputs": [
        {
          "internalType": "uint256",
          "name": "",
          "type": "uint256"
        }
      ],
      "stateMutability": "view",
      "type": "function"
    },
    {
      "inputs": [
        {
          "internalType": "uint256",
          "name": "",
          "type": "uint256"
        }
      ],
      "name": "owners",
      "outputs": [
        {
          "internalType": "address",
          "name": "",
          "type": "address"
        }
      ],
      "stateMutability": "view",
      "type": "function"
    },
    {
      "inputs": [
        {
          "internalType": "address",
          "name": "recipient",
          "type": "address"
        },
        {
          "internalType": "uint256",
          "name": "amount",
          "type": "uint256"
        }
      ],
      "name": "payUser",
      "outputs": [],
      "stateMutability": "nonpayable",
      "type": "function"
    },
    {
      "inputs": [
        {
          "internalType": "uint256",
          "name": "_txIndex",
          "type": "uint256"
        }
      ],
      "name": "revokeConfirmation",
      "outputs": [],
      "stateMutability": "nonpayable",
      "type": "function"
    },
    {
      "inputs": [
        {
          "internalType": "uint256",
          "name": "newLimit",
          "type": "uint256"
        }
      ],
      "name": "setDailyLimit",
      "outputs": [],
      "stateMutability": "nonpayable",
      "type": "function"
    },
    {
      "inputs": [
        {
          "internalType": "uint256",
          "name": "newPrice",
          "type": "uint256"
        }
      ],
      "name": "setMinPrice",
      "outputs": [],
      "stateMutability": "nonpayable",
      "type": "function"
    },
    {
      "inputs": [
        {
          "internalType": "address",
          "name": "_to",
          "type": "address"
        },
        {
          "internalType": "uint256",
          "name": "_value",
          "type": "uint256"
        },
        {
          "internalType": "string",
          "name": "_reason",
          "type": "string"
        }
      ],
      "name": "submitTransaction",
      "outputs": [],
      "stateMutability": "nonpayable",
      "type": "function"
    },
    {
      "inputs": [
        {
          "internalType": "uint256",
          "name": "",
          "type": "uint256"
        }
      ],
      "name": "transactions",
      "outputs": [
        {
          "internalType": "address",
          "name": "to",
          "type": "address"
        },
        {
          "internalType": "uint256",
          "name": "value",
          "type": "uint256"
        },
        {
          "internalType": "bool",
          "name": "executed",
          "type": "bool"
        },
        {
          "internalType": "uint256",
          "name": "numConfirmations",
          "type": "uint256"
        },
        {
          "internalType": "uint256",
          "name": "timestamp",
          "type": "uint256"
        },
        {
          "internalType": "string",
          "name": "reason",
          "type": "string"
        }
      ],
      "stateMutability": "view",
      "type": "function"
    },
    {
      "inputs": [],
      "name": "usdtToken",
      "outputs": [
        {
          "internalType": "contract IERC20",
          "name": "",
          "type": "address"
        }
      ],
      "stateMutability": "view",
      "type": "function"
    }
  ],
  "transactionHash": "0xd311cd9c780ba1b7c9c422b48a29e4ba5e8fafa733c438f49d2ed00715336832",
  "args": [
    [
      "0xf39Fd6e51aad88F6F4ce6aB8827279cffFb92266",
      "0x70997970C51812dc3A010C7d01b50e0d17dc79C8",
      "0x90F79bf6EB2c4f870365E785982E1f101E93b906"
    ],
    2,
    "0x5FbDB2315678afecb367f032d93F642f64180aa3"
  ],
  "numDeployments": 1,
  "solcInputHash": "3b1066901d6c46e8440fbe0fe7e34802",
  "bytecode": "0x6080604052670de0b6b3a764000060075569010f0cf064dd5920000060085534801561002a57600080fd5b5060405161351c38038061351c833981810160405281019061004c9190610581565b82826000825111610092576040517f08c379a00000000000000000000000000000000000000000000000000000000081526004016100899061064d565b60405180910390fd5b6000811180156100a3575081518111155b6100e2576040517f08c379a00000000000000000000000000000000000000000000000000000000081526004016100d9906106df565b60405180910390fd5b60005b82518110156102d1576000838281518110610103576101026106ff565b5b60200260200101519050600073ffffffffffffffffffffffffffffffffffffffff168173ffffffffffffffffffffffffffffffffffffffff160361017c576040517f08c379a00000000000000000000000000000000000000000000000000000000081526004016101739061077a565b60405180910390fd5b600160008273ffffffffffffffffffffffffffffffffffffffff1673ffffffffffffffffffffffffffffffffffffffff16815260200190815260200160002060009054906101000a900460ff1615610209576040517f08c379a0000000000000000000000000000000000000000000000000000000008152600401610200906107e6565b60405180910390fd5b60018060008373ffffffffffffffffffffffffffffffffffffffff1673ffffffffffffffffffffffffffffffffffffffff16815260200190815260200160002060006101000a81548160ff0219169083151502179055506000819080600181540180825580915050600190039060005260206000200160009091909190916101000a81548173ffffffffffffffffffffffffffffffffffffffff021916908373ffffffffffffffffffffffffffffffffffffffff1602179055505080806001019150506100e5565b50806002819055505050826000815181106102ef576102ee6106ff565b5b6020026020010151600560006101000a81548173ffffffffffffffffffffffffffffffffffffffff021916908373ffffffffffffffffffffffffffffffffffffffff16021790555080600660006101000a81548173ffffffffffffffffffffffffffffffffffffffff021916908373ffffffffffffffffffffffffffffffffffffffff160217905550505050610806565b6000604051905090565b600080fd5b600080fd5b600080fd5b6000601f19601f8301169050919050565b7f4e487b7100000000000000000000000000000000000000000000000000000000600052604160045260246000fd5b6103e282610399565b810181811067ffffffffffffffff82111715610401576104006103aa565b5b80604052505050565b6000610414610380565b905061042082826103d9565b919050565b600067ffffffffffffffff8211156104405761043f6103aa565b5b602082029050602081019050919050565b600080fd5b600073ffffffffffffffffffffffffffffffffffffffff82169050919050565b600061048182610456565b9050919050565b61049181610476565b811461049c57600080fd5b50565b6000815190506104ae81610488565b92915050565b60006104c76104c284610425565b61040a565b905080838252602082019050602084028301858111156104ea576104e9610451565b5b835b8181101561051357806104ff888261049f565b8452602084019350506020810190506104ec565b5050509392505050565b600082601f83011261053257610531610394565b5b81516105428482602086016104b4565b91505092915050565b6000819050919050565b61055e8161054b565b811461056957600080fd5b50565b60008151905061057b81610555565b92915050565b60008060006060848603121561059a5761059961038a565b5b600084015167ffffffffffffffff8111156105b8576105b761038f565b5b6105c48682870161051d565b93505060206105d58682870161056c565b92505060406105e68682870161049f565b9150509250925092565b600082825260208201905092915050565b7f6f776e6572732072657175697265640000000000000000000000000000000000600082015250565b6000610637600f836105f0565b915061064282610601565b602082019050919050565b600060208201905081810360008301526106668161062a565b9050919050565b7f696e76616c6964206e756d626572206f6620726571756972656420636f6e666960008201527f726d6174696f6e73000000000000000000000000000000000000000000000000602082015250565b60006106c96028836105f0565b91506106d48261066d565b604082019050919050565b600060208201905081810360008301526106f8816106bc565b9050919050565b7f4e487b7100000000000000000000000000000000000000000000000000000000600052603260045260246000fd5b7f696e76616c6964206f776e657200000000000000000000000000000000000000600082015250565b6000610764600d836105f0565b915061076f8261072e565b602082019050919050565b6000602082019050818103600083015261079381610757565b9050919050565b7f6f776e6572206e6f7420756e6971756500000000000000000000000000000000600082015250565b60006107d06010836105f0565b91506107db8261079a565b602082019050919050565b600060208201905081810360008301526107ff816107c3565b9050919050565b612d07806108156000396000f3fe608060405234801561001057600080fd5b50600436106101585760003560e01c806380f59a65116100c3578063b343a0df1161007c578063b343a0df146103d5578063b6b55f25146103f3578063c01a8c841461040f578063d0549b851461042b578063ecd831e814610449578063ee22610b1461046557610158565b806380f59a65146102fa5780638d859f3e1461032a5780639ace38c214610348578063a0e67e2b1461037d578063a98ad46c1461039b578063b20d30a9146103b957610158565b80632e7700f0116101155780632e7700f01461021f5780632f54bf6e1461023d57806333ea3dc81461026d5780635ea8cd12146102a25780636f9fb98a146102be5780637c7c7c3c146102dc57610158565b8063025e7c271461015d57806303d79d281461018d5780630bc6b89c146101a957806320ea8d86146101c7578063248ec326146101e357806326b7116314610201575b600080fd5b61017760048036038101906101729190611b68565b610481565b6040516101849190611bd6565b60405180910390f35b6101a760048036038101906101a29190611d63565b6104c0565b005b6101b16106d3565b6040516101be9190611de1565b60405180910390f35b6101e160048036038101906101dc9190611b68565b6106d9565b005b6101eb6109b3565b6040516101f89190611de1565b60405180910390f35b6102096109b9565b6040516102169190611de1565b60405180910390f35b6102276109f3565b6040516102349190611de1565b60405180910390f35b61025760048036038101906102529190611dfc565b610a00565b6040516102649190611e44565b60405180910390f35b61028760048036038101906102829190611b68565b610a20565b60405161029996959493929190611ede565b60405180910390f35b6102bc60048036038101906102b79190611b68565b610b3c565b005b6102c6610c1d565b6040516102d39190611de1565b60405180910390f35b6102e4610cc0565b6040516102f19190611bd6565b60405180910390f35b610314600480360381019061030f9190611f46565b610ce6565b6040516103219190611e44565b60405180910390f35b610332610d15565b60405161033f9190611de1565b60405180910390f35b610362600480360381019061035d9190611b68565b610d1b565b60405161037496959493929190611ede565b60405180910390f35b610385610e1c565b6040516103929190612044565b60405180910390f35b6103a3610eaa565b6040516103b091906120c5565b60405180910390f35b6103d360048036038101906103ce9190611b68565b610ed0565b005b6103dd610fa9565b6040516103ea9190611de1565b60405180910390f35b61040d60048036038101906104089190611b68565b610faf565b005b61042960048036038101906104249190611b68565b611208565b005b6104336114e5565b6040516104409190611de1565b60405180910390f35b610463600480360381019061045e91906120e0565b6114eb565b005b61047f600480360381019061047a9190611b68565b611795565b005b6000818154811061049157600080fd5b906000526020600020016000915054906101000a900473ffffffffffffffffffffffffffffffffffffffff1681565b600160003373ffffffffffffffffffffffffffffffffffffffff1673ffffffffffffffffffffffffffffffffffffffff16815260200190815260200160002060009054906101000a900460ff1661054c576040517f08c379a00000000000000000000000000000000000000000000000000000000081526004016105439061216c565b60405180910390fd5b6000600380549050905060036040518060c001604052808673ffffffffffffffffffffffffffffffffffffffff1681526020018581526020016000151581526020016000815260200142815260200184815250908060018154018082558091505060019003906000526020600020906006020160009091909190915060008201518160000160006101000a81548173ffffffffffffffffffffffffffffffffffffffff021916908373ffffffffffffffffffffffffffffffffffffffff1602179055506020820151816001015560408201518160020160006101000a81548160ff021916908315150217905550606082015181600301556080820151816004015560a0820151816005019081610662919061238e565b5050508373ffffffffffffffffffffffffffffffffffffffff16813373ffffffffffffffffffffffffffffffffffffffff167f557adc301c59c014874da9dd74ad580f3d8a99947a7df3947967947d8e89920e86866040516106c5929190612460565b60405180910390a450505050565b60095481565b600160003373ffffffffffffffffffffffffffffffffffffffff1673ffffffffffffffffffffffffffffffffffffffff16815260200190815260200160002060009054906101000a900460ff16610765576040517f08c379a000000000000000000000000000000000000000000000000000000000815260040161075c9061216c565b60405180910390fd5b8060038054905081106107ad576040517f08c379a00000000000000000000000000000000000000000000000000000000081526004016107a4906124dc565b60405180910390fd5b81600381815481106107c2576107c16124fc565b5b906000526020600020906006020160020160009054906101000a900460ff1615610821576040517f08c379a000000000000000000000000000000000000000000000000000000000815260040161081890612577565b60405180910390fd5b6004600084815260200190815260200160002060003373ffffffffffffffffffffffffffffffffffffffff1673ffffffffffffffffffffffffffffffffffffffff16815260200190815260200160002060009054906101000a900460ff166108be576040517f08c379a00000000000000000000000000000000000000000000000000000000081526004016108b5906125e3565b60405180910390fd5b6000600384815481106108d4576108d36124fc565b5b9060005260206000209060060201905060018160030160008282546108f99190612632565b9250508190555060006004600086815260200190815260200160002060003373ffffffffffffffffffffffffffffffffffffffff1673ffffffffffffffffffffffffffffffffffffffff16815260200190815260200160002060006101000a81548160ff021916908315150217905550833373ffffffffffffffffffffffffffffffffffffffff167ff0dca620e2e81f7841d07bcc105e1704fb01475b278a9d4c236e1c62945edd5560405160405180910390a350505050565b60085481565b600062015180600a546109cc9190612666565b4211156109dd5760085490506109f0565b6009546008546109ed9190612632565b90505b90565b6000600380549050905090565b60016020528060005260406000206000915054906101000a900460ff1681565b60008060008060006060600060038881548110610a4057610a3f6124fc565b5b906000526020600020906006020190508060000160009054906101000a900473ffffffffffffffffffffffffffffffffffffffff1681600101548260020160009054906101000a900460ff168360030154846004015485600501808054610aa6906121bb565b80601f0160208091040260200160405190810160405280929190818152602001828054610ad2906121bb565b8015610b1f5780601f10610af457610100808354040283529160200191610b1f565b820191906000526020600020905b815481529060010190602001808311610b0257829003601f168201915b505050505090509650965096509650965096505091939550919395565b600160003373ffffffffffffffffffffffffffffffffffffffff1673ffffffffffffffffffffffffffffffffffffffff16815260200190815260200160002060009054906101000a900460ff16610bc8576040517f08c379a0000000000000000000000000000000000000000000000000000000008152600401610bbf9061216c565b60405180910390fd5b670de0b6b3a7640000811015610c13576040517f08c379a0000000000000000000000000000000000000000000000000000000008152600401610c0a906126e6565b60405180910390fd5b8060078190555050565b6000600660009054906101000a900473ffffffffffffffffffffffffffffffffffffffff1673ffffffffffffffffffffffffffffffffffffffff166370a08231306040518263ffffffff1660e01b8152600401610c7a9190611bd6565b602060405180830381865afa158015610c97573d6000803e3d6000fd5b505050506040513d601f19601f82011682018060405250810190610cbb919061271b565b905090565b600560009054906101000a900473ffffffffffffffffffffffffffffffffffffffff1681565b60046020528160005260406000206020528060005260406000206000915091509054906101000a900460ff1681565b60075481565b60038181548110610d2b57600080fd5b90600052602060002090600602016000915090508060000160009054906101000a900473ffffffffffffffffffffffffffffffffffffffff16908060010154908060020160009054906101000a900460ff1690806003015490806004015490806005018054610d99906121bb565b80601f0160208091040260200160405190810160405280929190818152602001828054610dc5906121bb565b8015610e125780601f10610de757610100808354040283529160200191610e12565b820191906000526020600020905b815481529060010190602001808311610df557829003601f168201915b5050505050905086565b60606000805480602002602001604051908101604052809291908181526020018280548015610ea057602002820191906000526020600020905b8160009054906101000a900473ffffffffffffffffffffffffffffffffffffffff1673ffffffffffffffffffffffffffffffffffffffff1681526020019060010190808311610e56575b5050505050905090565b600660009054906101000a900473ffffffffffffffffffffffffffffffffffffffff1681565b600160003373ffffffffffffffffffffffffffffffffffffffff1673ffffffffffffffffffffffffffffffffffffffff16815260200190815260200160002060009054906101000a900460ff16610f5c576040517f08c379a0000000000000000000000000000000000000000000000000000000008152600401610f539061216c565b60405180910390fd5b60008111610f9f576040517f08c379a0000000000000000000000000000000000000000000000000000000008152600401610f9690612794565b60405180910390fd5b8060088190555050565b600a5481565b600754811015610ff4576040517f08c379a0000000000000000000000000000000000000000000000000000000008152600401610feb90612800565b60405180910390fd5b80600660009054906101000a900473ffffffffffffffffffffffffffffffffffffffff1673ffffffffffffffffffffffffffffffffffffffff1663dd62ed3e33306040518363ffffffff1660e01b8152600401611052929190612820565b602060405180830381865afa15801561106f573d6000803e3d6000fd5b505050506040513d601f19601f82011682018060405250810190611093919061271b565b10156110d4576040517f08c379a00000000000000000000000000000000000000000000000000000000081526004016110cb90612895565b60405180910390fd5b600660009054906101000a900473ffffffffffffffffffffffffffffffffffffffff1673ffffffffffffffffffffffffffffffffffffffff166323b872dd3330846040518463ffffffff1660e01b8152600401611133939291906128b5565b6020604051808303816000875af1158015611152573d6000803e3d6000fd5b505050506040513d601f19601f820116820180604052508101906111769190612918565b6111b5576040517f08c379a00000000000000000000000000000000000000000000000000000000081526004016111ac90612991565b60405180910390fd5b3373ffffffffffffffffffffffffffffffffffffffff167f73a19dd210f1a7f902193214c0ee91dd35ee5b4d920cba8d519eca65a7b488ca82426040516111fd9291906129b1565b60405180910390a250565b600160003373ffffffffffffffffffffffffffffffffffffffff1673ffffffffffffffffffffffffffffffffffffffff16815260200190815260200160002060009054906101000a900460ff16611294576040517f08c379a000000000000000000000000000000000000000000000000000000000815260040161128b9061216c565b60405180910390fd5b8060038054905081106112dc576040517f08c379a00000000000000000000000000000000000000000000000000000000081526004016112d3906124dc565b60405180910390fd5b81600381815481106112f1576112f06124fc565b5b906000526020600020906006020160020160009054906101000a900460ff1615611350576040517f08c379a000000000000000000000000000000000000000000000000000000000815260040161134790612577565b60405180910390fd5b826004600082815260200190815260200160002060003373ffffffffffffffffffffffffffffffffffffffff1673ffffffffffffffffffffffffffffffffffffffff16815260200190815260200160002060009054906101000a900460ff16156113ef576040517f08c379a00000000000000000000000000000000000000000000000000000000081526004016113e690612a26565b60405180910390fd5b600060038581548110611405576114046124fc565b5b90600052602060002090600602019050600181600301600082825461142a9190612666565b9250508190555060016004600087815260200190815260200160002060003373ffffffffffffffffffffffffffffffffffffffff1673ffffffffffffffffffffffffffffffffffffffff16815260200190815260200160002060006101000a81548160ff021916908315150217905550843373ffffffffffffffffffffffffffffffffffffffff167f5cbe105e36805f7820e291f799d5794ff948af2a5f664e580382defb6339004160405160405180910390a35050505050565b60025481565b600560009054906101000a900473ffffffffffffffffffffffffffffffffffffffff1673ffffffffffffffffffffffffffffffffffffffff163373ffffffffffffffffffffffffffffffffffffffff161461157b576040517f08c379a000000000000000000000000000000000000000000000000000000000815260040161157290612a92565b60405180910390fd5b61158481611a88565b80600660009054906101000a900473ffffffffffffffffffffffffffffffffffffffff1673ffffffffffffffffffffffffffffffffffffffff166370a08231306040518263ffffffff1660e01b81526004016115e09190611bd6565b602060405180830381865afa1580156115fd573d6000803e3d6000fd5b505050506040513d601f19601f82011682018060405250810190611621919061271b565b1015611662576040517f08c379a000000000000000000000000000000000000000000000000000000000815260040161165990612afe565b60405180910390fd5b600660009054906101000a900473ffffffffffffffffffffffffffffffffffffffff1673ffffffffffffffffffffffffffffffffffffffff1663a9059cbb83836040518363ffffffff1660e01b81526004016116bf929190612b1e565b6020604051808303816000875af11580156116de573d6000803e3d6000fd5b505050506040513d601f19601f820116820180604052508101906117029190612918565b611741576040517f08c379a000000000000000000000000000000000000000000000000000000000815260040161173890612991565b60405180910390fd5b8173ffffffffffffffffffffffffffffffffffffffff167fdf9a51129930649214df58f542322c245372c6f2fa6fc3c9b40d927c597cd23082426040516117899291906129b1565b60405180910390a25050565b600160003373ffffffffffffffffffffffffffffffffffffffff1673ffffffffffffffffffffffffffffffffffffffff16815260200190815260200160002060009054906101000a900460ff16611821576040517f08c379a00000000000000000000000000000000000000000000000000000000081526004016118189061216c565b60405180910390fd5b806003805490508110611869576040517f08c379a0000000000000000000000000000000000000000000000000000000008152600401611860906124dc565b60405180910390fd5b816003818154811061187e5761187d6124fc565b5b906000526020600020906006020160020160009054906101000a900460ff16156118dd576040517f08c379a00000000000000000000000000000000000000000000000000000000081526004016118d490612577565b60405180910390fd5b6000600384815481106118f3576118f26124fc565b5b906000526020600020906006020190506002548160030154101561194c576040517f08c379a000000000000000000000000000000000000000000000000000000000815260040161194390612b93565b60405180910390fd5b60018160020160006101000a81548160ff02191690831515021790555060008160000160009054906101000a900473ffffffffffffffffffffffffffffffffffffffff1673ffffffffffffffffffffffffffffffffffffffff1682600101546040516119b790612be4565b60006040518083038185875af1925050503d80600081146119f4576040519150601f19603f3d011682016040523d82523d6000602084013e6119f9565b606091505b5050905080611a3d576040517f08c379a0000000000000000000000000000000000000000000000000000000008152600401611a3490612c45565b60405180910390fd5b843373ffffffffffffffffffffffffffffffffffffffff167f5445f318f4f5fcfb66592e68e0cc5822aa15664039bd5f0ffde24c5a8142b1ac60405160405180910390a35050505050565b62015180600a54611a999190612666565b421115611ab057600060098190555042600a819055505b60085481600954611ac19190612666565b1115611b02576040517f08c379a0000000000000000000000000000000000000000000000000000000008152600401611af990612cb1565b60405180910390fd5b8060096000828254611b149190612666565b9250508190555050565b6000604051905090565b600080fd5b600080fd5b6000819050919050565b611b4581611b32565b8114611b5057600080fd5b50565b600081359050611b6281611b3c565b92915050565b600060208284031215611b7e57611b7d611b28565b5b6000611b8c84828501611b53565b91505092915050565b600073ffffffffffffffffffffffffffffffffffffffff82169050919050565b6000611bc082611b95565b9050919050565b611bd081611bb5565b82525050565b6000602082019050611beb6000830184611bc7565b92915050565b611bfa81611bb5565b8114611c0557600080fd5b50565b600081359050611c1781611bf1565b92915050565b600080fd5b600080fd5b6000601f19601f8301169050919050565b7f4e487b7100000000000000000000000000000000000000000000000000000000600052604160045260246000fd5b611c7082611c27565b810181811067ffffffffffffffff82111715611c8f57611c8e611c38565b5b80604052505050565b6000611ca2611b1e565b9050611cae8282611c67565b919050565b600067ffffffffffffffff821115611cce57611ccd611c38565b5b611cd782611c27565b9050602081019050919050565b82818337600083830152505050565b6000611d06611d0184611cb3565b611c98565b905082815260208101848484011115611d2257611d21611c22565b5b611d2d848285611ce4565b509392505050565b600082601f830112611d4a57611d49611c1d565b5b8135611d5a848260208601611cf3565b91505092915050565b600080600060608486031215611d7c57611d7b611b28565b5b6000611d8a86828701611c08565b9350506020611d9b86828701611b53565b925050604084013567ffffffffffffffff811115611dbc57611dbb611b2d565b5b611dc886828701611d35565b9150509250925092565b611ddb81611b32565b82525050565b6000602082019050611df66000830184611dd2565b92915050565b600060208284031215611e1257611e11611b28565b5b6000611e2084828501611c08565b91505092915050565b60008115159050919050565b611e3e81611e29565b82525050565b6000602082019050611e596000830184611e35565b92915050565b600081519050919050565b600082825260208201905092915050565b60005b83811015611e99578082015181840152602081019050611e7e565b60008484015250505050565b6000611eb082611e5f565b611eba8185611e6a565b9350611eca818560208601611e7b565b611ed381611c27565b840191505092915050565b600060c082019050611ef36000830189611bc7565b611f006020830188611dd2565b611f0d6040830187611e35565b611f1a6060830186611dd2565b611f276080830185611dd2565b81810360a0830152611f398184611ea5565b9050979650505050505050565b60008060408385031215611f5d57611f5c611b28565b5b6000611f6b85828601611b53565b9250506020611f7c85828601611c08565b9150509250929050565b600081519050919050565b600082825260208201905092915050565b6000819050602082019050919050565b611fbb81611bb5565b82525050565b6000611fcd8383611fb2565b60208301905092915050565b6000602082019050919050565b6000611ff182611f86565b611ffb8185611f91565b935061200683611fa2565b8060005b8381101561203757815161201e8882611fc1565b975061202983611fd9565b92505060018101905061200a565b5085935050505092915050565b6000602082019050818103600083015261205e8184611fe6565b905092915050565b6000819050919050565b600061208b61208661208184611b95565b612066565b611b95565b9050919050565b600061209d82612070565b9050919050565b60006120af82612092565b9050919050565b6120bf816120a4565b82525050565b60006020820190506120da60008301846120b6565b92915050565b600080604083850312156120f7576120f6611b28565b5b600061210585828601611c08565b925050602061211685828601611b53565b9150509250929050565b7f6e6f74206f776e65720000000000000000000000000000000000000000000000600082015250565b6000612156600983611e6a565b915061216182612120565b602082019050919050565b6000602082019050818103600083015261218581612149565b9050919050565b7f4e487b7100000000000000000000000000000000000000000000000000000000600052602260045260246000fd5b600060028204905060018216806121d357607f821691505b6020821081036121e6576121e561218c565b5b50919050565b60008190508160005260206000209050919050565b60006020601f8301049050919050565b600082821b905092915050565b60006008830261224e7fffffffffffffffffffffffffffffffffffffffffffffffffffffffffffffffff82612211565b6122588683612211565b95508019841693508086168417925050509392505050565b600061228b61228661228184611b32565b612066565b611b32565b9050919050565b6000819050919050565b6122a583612270565b6122b96122b182612292565b84845461221e565b825550505050565b600090565b6122ce6122c1565b6122d981848461229c565b505050565b5b818110156122fd576122f26000826122c6565b6001810190506122df565b5050565b601f82111561234257612313816121ec565b61231c84612201565b8101602085101561232b578190505b61233f61233785612201565b8301826122de565b50505b505050565b600082821c905092915050565b600061236560001984600802612347565b1980831691505092915050565b600061237e8383612354565b9150826002028217905092915050565b61239782611e5f565b67ffffffffffffffff8111156123b0576123af611c38565b5b6123ba82546121bb565b6123c5828285612301565b600060209050601f8311600181146123f857600084156123e6578287015190505b6123f08582612372565b865550612458565b601f198416612406866121ec565b60005b8281101561242e57848901518255600182019150602085019450602081019050612409565b8683101561244b5784890151612447601f891682612354565b8355505b6001600288020188555050505b505050505050565b60006040820190506124756000830185611dd2565b81810360208301526124878184611ea5565b90509392505050565b7f747820646f6573206e6f74206578697374000000000000000000000000000000600082015250565b60006124c6601183611e6a565b91506124d182612490565b602082019050919050565b600060208201905081810360008301526124f5816124b9565b9050919050565b7f4e487b7100000000000000000000000000000000000000000000000000000000600052603260045260246000fd5b7f747820616c726561647920657865637574656400000000000000000000000000600082015250565b6000612561601383611e6a565b915061256c8261252b565b602082019050919050565b6000602082019050818103600083015261259081612554565b9050919050565b7f7478206e6f7420636f6e6669726d656400000000000000000000000000000000600082015250565b60006125cd601083611e6a565b91506125d882612597565b602082019050919050565b600060208201905081810360008301526125fc816125c0565b9050919050565b7f4e487b7100000000000000000000000000000000000000000000000000000000600052601160045260246000fd5b600061263d82611b32565b915061264883611b32565b92508282039050818111156126605761265f612603565b5b92915050565b600061267182611b32565b915061267c83611b32565b925082820190508082111561269457612693612603565b5b92915050565b7f4d696e696d756d206d757374206265203e3d2031205553445400000000000000600082015250565b60006126d0601983611e6a565b91506126db8261269a565b602082019050919050565b600060208201905081810360008301526126ff816126c3565b9050919050565b60008151905061271581611b3c565b92915050565b60006020828403121561273157612730611b28565b5b600061273f84828501612706565b91505092915050565b7f496e76616c6964206c696d697400000000000000000000000000000000000000600082015250565b600061277e600d83611e6a565b915061278982612748565b602082019050919050565b600060208201905081810360008301526127ad81612771565b9050919050565b7f416d6f756e742062656c6f77206d696e696d756d000000000000000000000000600082015250565b60006127ea601483611e6a565b91506127f5826127b4565b602082019050919050565b60006020820190508181036000830152612819816127dd565b9050919050565b60006040820190506128356000830185611bc7565b6128426020830184611bc7565b9392505050565b7f4e6f7420617070726f7665640000000000000000000000000000000000000000600082015250565b600061287f600c83611e6a565b915061288a82612849565b602082019050919050565b600060208201905081810360008301526128ae81612872565b9050919050565b60006060820190506128ca6000830186611bc7565b6128d76020830185611bc7565b6128e46040830184611dd2565b949350505050565b6128f581611e29565b811461290057600080fd5b50565b600081519050612912816128ec565b92915050565b60006020828403121561292e5761292d611b28565b5b600061293c84828501612903565b91505092915050565b7f5472616e73666572206661696c65640000000000000000000000000000000000600082015250565b600061297b600f83611e6a565b915061298682612945565b602082019050919050565b600060208201905081810360008301526129aa8161296e565b9050919050565b60006040820190506129c66000830185611dd2565b6129d36020830184611dd2565b9392505050565b7f747820616c726561647920636f6e6669726d6564000000000000000000000000600082015250565b6000612a10601483611e6a565b9150612a1b826129da565b602082019050919050565b60006020820190508181036000830152612a3f81612a03565b9050919050565b7f4f6e6c792053757065722041646d696e00000000000000000000000000000000600082015250565b6000612a7c601083611e6a565b9150612a8782612a46565b602082019050919050565b60006020820190508181036000830152612aab81612a6f565b9050919050565b7f496e73756666696369656e742062616c616e6365000000000000000000000000600082015250565b6000612ae8601483611e6a565b9150612af382612ab2565b602082019050919050565b60006020820190508181036000830152612b1781612adb565b9050919050565b6000604082019050612b336000830185611bc7565b612b406020830184611dd2565b9392505050565b7f63616e6e6f742065786563757465207478000000000000000000000000000000600082015250565b6000612b7d601183611e6a565b9150612b8882612b47565b602082019050919050565b60006020820190508181036000830152612bac81612b70565b9050919050565b600081905092915050565b50565b6000612bce600083612bb3565b9150612bd982612bbe565b600082019050919050565b6000612bef82612bc1565b9150819050919050565b7f7478206661696c65640000000000000000000000000000000000000000000000600082015250565b6000612c2f600983611e6a565b9150612c3a82612bf9565b602082019050919050565b60006020820190508181036000830152612c5e81612c22565b9050919050565b7f4461696c79207061796f7574206c696d69742065786365656465640000000000600082015250565b6000612c9b601b83611e6a565b9150612ca682612c65565b602082019050919050565b60006020820190508181036000830152612cca81612c8e565b905091905056fea2646970667358221220e34040eefdfc30047f762e8664ce3f85928156a234d1d560e34b1baf1d11639464736f6c634300081c0033",
  "devdoc": {
    "details": "Handles USDT deposits and controlled payments with limited daily allowance",
    "kind": "dev",
    "methods": {},
    "title": "AffiliateVault",
    "version": 1
  },
  "userdoc": {
    "kind": "user",
    "methods": {},
    "version": 1
  },
  "storageLayout": {
    "storage": [
      {
        "astId": 367,
        "contract": "contracts/AffiliateVault.sol:AffiliateVault",
        "label": "owners",
        "offset": 0,
        "slot": "0",
        "type": "t_array(t_address)dyn_storage"
      },
      {
        "astId": 371,
        "contract": "contracts/AffiliateVault.sol:AffiliateVault",
        "label": "isOwner",
        "offset": 0,
        "slot": "1",
        "type": "t_mapping(t_address,t_bool)"
      },
      {
        "astId": 373,
        "contract": "contracts/AffiliateVault.sol:AffiliateVault",
        "label": "numConfirmationsRequired",
        "offset": 0,
        "slot": "2",
        "type": "t_uint256"
      },
      {
        "astId": 390,
        "contract": "contracts/AffiliateVault.sol:AffiliateVault",
        "label": "transactions",
        "offset": 0,
        "slot": "3",
        "type": "t_array(t_struct(Transaction)386_storage)dyn_storage"
      },
      {
        "astId": 396,
        "contract": "contracts/AffiliateVault.sol:AffiliateVault",
        "label": "isConfirmed",
        "offset": 0,
        "slot": "4",
        "type": "t_mapping(t_uint256,t_mapping(t_address,t_bool))"
      },
      {
        "astId": 86,
        "contract": "contracts/AffiliateVault.sol:AffiliateVault",
        "label": "SUPER_ADMIN",
        "offset": 0,
        "slot": "5",
        "type": "t_address"
      },
      {
        "astId": 89,
        "contract": "contracts/AffiliateVault.sol:AffiliateVault",
        "label": "usdtToken",
        "offset": 0,
        "slot": "6",
        "type": "t_contract(IERC20)77"
      },
      {
        "astId": 94,
        "contract": "contracts/AffiliateVault.sol:AffiliateVault",
        "label": "PRICE",
        "offset": 0,
        "slot": "7",
        "type": "t_uint256"
      },
      {
        "astId": 99,
        "contract": "contracts/AffiliateVault.sol:AffiliateVault",
        "label": "DAILY_LIMIT",
        "offset": 0,
        "slot": "8",
        "type": "t_uint256"
      },
      {
        "astId": 101,
        "contract": "contracts/AffiliateVault.sol:AffiliateVault",
        "label": "dailySpent",
        "offset": 0,
        "slot": "9",
        "type": "t_uint256"
      },
      {
        "astId": 103,
        "contract": "contracts/AffiliateVault.sol:AffiliateVault",
        "label": "lastResetTimestamp",
        "offset": 0,
        "slot": "10",
        "type": "t_uint256"
      }
    ],
    "types": {
      "t_address": {
        "encoding": "inplace",
        "label": "address",
        "numberOfBytes": "20"
      },
      "t_array(t_address)dyn_storage": {
        "base": "t_address",
        "encoding": "dynamic_array",
        "label": "address[]",
        "numberOfBytes": "32"
      },
      "t_array(t_struct(Transaction)386_storage)dyn_storage": {
        "base": "t_struct(Transaction)386_storage",
        "encoding": "dynamic_array",
        "label": "struct Multisig.Transaction[]",
        "numberOfBytes": "32"
      },
      "t_bool": {
        "encoding": "inplace",
        "label": "bool",
        "numberOfBytes": "1"
      },
      "t_contract(IERC20)77": {
        "encoding": "inplace",
        "label": "contract IERC20",
        "numberOfBytes": "20"
      },
      "t_mapping(t_address,t_bool)": {
        "encoding": "mapping",
        "key": "t_address",
        "label": "mapping(address => bool)",
        "numberOfBytes": "32",
        "value": "t_bool"
      },
      "t_mapping(t_uint256,t_mapping(t_address,t_bool))": {
        "encoding": "mapping",
        "key": "t_uint256",
        "label": "mapping(uint256 => mapping(address => bool))",
        "numberOfBytes": "32",
        "value": "t_mapping(t_address,t_bool)"
      },
      "t_string_storage": {
        "encoding": "bytes",
        "label": "string",
        "numberOfBytes": "32"
      },
      "t_struct(Transaction)386_storage": {
        "encoding": "inplace",
        "label": "struct Multisig.Transaction",
        "members": [
          {
            "astId": 375,
            "contract": "contracts/AffiliateVault.sol:AffiliateVault",
            "label": "to",
            "offset": 0,
            "slot": "0",
            "type": "t_address"
          },
          {
            "astId": 377,
            "contract": "contracts/AffiliateVault.sol:AffiliateVault",
            "label": "value",
            "offset": 0,
            "slot": "1",
            "type": "t_uint256"
          },
          {
            "astId": 379,
            "contract": "contracts/AffiliateVault.sol:AffiliateVault",
            "label": "executed",
            "offset": 0,
            "slot": "2",
            "type": "t_bool"
          },
          {
            "astId": 381,
            "contract": "contracts/AffiliateVault.sol:AffiliateVault",
            "label": "numConfirmations",
            "offset": 0,
            "slot": "3",
            "type": "t_uint256"
          },
          {
            "astId": 383,
            "contract": "contracts/AffiliateVault.sol:AffiliateVault",
            "label": "timestamp",
            "offset": 0,
            "slot": "4",
            "type": "t_uint256"
          },
          {
            "astId": 385,
            "contract": "contracts/AffiliateVault.sol:AffiliateVault",
            "label": "reason",
            "offset": 0,
            "slot": "5",
            "type": "t_string_storage"
          }
        ],
        "numberOfBytes": "192"
      },
      "t_uint256": {
        "encoding": "inplace",
        "label": "uint256",
        "numberOfBytes": "32"
      }
    }
  }
}