{
  "address": "0xDc64a140Aa3E981100a9becA4E685f962f0cF6C9",
  "abi": [
    {
      "inputs": [
        {
          "internalType": "bytes32",
          "name": "_messageHash",
          "type": "bytes32"
        }
      ],
      "name": "getEthSignedMessageHash",
      "outputs": [
        {
          "internalType": "bytes32",
          "name": "",
          "type": "bytes32"
        }
      ],
      "stateMutability": "pure",
      "type": "function"
    },
    {
      "inputs": [
        {
          "internalType": "string",
          "name": "_message",
          "type": "string"
        }
      ],
      "name": "getMessageHash",
      "outputs": [
        {
          "internalType": "bytes32",
          "name": "",
          "type": "bytes32"
        }
      ],
      "stateMutability": "pure",
      "type": "function"
    },
    {
      "inputs": [
        {
          "internalType": "bytes32",
          "name": "_ethSignedMessageHash",
          "type": "bytes32"
        },
        {
          "internalType": "bytes",
          "name": "_signature",
          "type": "bytes"
        }
      ],
      "name": "recoverSigner",
      "outputs": [
        {
          "internalType": "address",
          "name": "",
          "type": "address"
        }
      ],
      "stateMutability": "pure",
      "type": "function"
    },
    {
      "inputs": [
        {
          "internalType": "bytes",
          "name": "sig",
          "type": "bytes"
        }
      ],
      "name": "splitSignature",
      "outputs": [
        {
          "internalType": "bytes32",
          "name": "r",
          "type": "bytes32"
        },
        {
          "internalType": "bytes32",
          "name": "s",
          "type": "bytes32"
        },
        {
          "internalType": "uint8",
          "name": "v",
          "type": "uint8"
        }
      ],
      "stateMutability": "pure",
      "type": "function"
    },
    {
      "inputs": [
        {
          "internalType": "address",
          "name": "_signer",
          "type": "address"
        },
        {
          "internalType": "string",
          "name": "_message",
          "type": "string"
        },
        {
          "internalType": "bytes",
          "name": "signature",
          "type": "bytes"
        }
      ],
      "name": "verify",
      "outputs": [
        {
          "internalType": "bool",
          "name": "",
          "type": "bool"
        }
      ],
      "stateMutability": "pure",
      "type": "function"
    }
  ],
  "transactionHash": "0xab4ca187020715a07736ddb1025e332ee3327525be7376c883638c346c8be97b",
  "args": [],
  "numDeployments": 1,
  "solcInputHash": "bcb814ec2eb7a27c0a81eb55d36bd198",
  "bytecode": "0x6080604052348015600f57600080fd5b50610b4e8061001f6000396000f3fe608060405234801561001057600080fd5b50600436106100575760003560e01c80632dd34f0f1461005c57806397aba7f91461008c578063a7bb5803146100bc578063b446f3b2146100ee578063fa5408011461011e575b600080fd5b610076600480360381019061007191906105b2565b61014e565b6040516100839190610658565b60405180910390f35b6100a660048036038101906100a191906106a9565b6101b2565b6040516100b39190610714565b60405180910390f35b6100d660048036038101906100d1919061072f565b610221565b6040516100e5939291906107a3565b60405180910390f35b610108600480360381019061010391906107da565b6102f9565b6040516101159190610823565b60405180910390f35b6101386004803603810190610133919061083e565b610329565b6040516101459190610823565b60405180910390f35b60008061015a846102f9565b9050600061016782610329565b9050600061017582866101b2565b90508673ffffffffffffffffffffffffffffffffffffffff168173ffffffffffffffffffffffffffffffffffffffff161493505050509392505050565b6000806000806101c185610221565b925092509250600186828585604051600081526020016040526040516101ea949392919061086b565b6020604051602081039080840390855afa15801561020c573d6000803e3d6000fd5b50505060206040510351935050505092915050565b6000806000604184511461026a576040517f08c379a00000000000000000000000000000000000000000000000000000000081526004016102619061090d565b60405180910390fd5b6020840151925060408401519150606084015160001a9050601b8160ff16101561029e57601b8161029b919061095c565b90505b601b8160ff1614806102b35750601c8160ff16145b6102f2576040517f08c379a00000000000000000000000000000000000000000000000000000000081526004016102e9906109dd565b60405180910390fd5b9193909250565b60008160405160200161030c9190610a6e565b604051602081830303815290604052805190602001209050919050565b60008160405160200161033c9190610af2565b604051602081830303815290604052805190602001209050919050565b6000604051905090565b600080fd5b600080fd5b600073ffffffffffffffffffffffffffffffffffffffff82169050919050565b60006103988261036d565b9050919050565b6103a88161038d565b81146103b357600080fd5b50565b6000813590506103c58161039f565b92915050565b600080fd5b600080fd5b6000601f19601f8301169050919050565b7f4e487b7100000000000000000000000000000000000000000000000000000000600052604160045260246000fd5b61041e826103d5565b810181811067ffffffffffffffff8211171561043d5761043c6103e6565b5b80604052505050565b6000610450610359565b905061045c8282610415565b919050565b600067ffffffffffffffff82111561047c5761047b6103e6565b5b610485826103d5565b9050602081019050919050565b82818337600083830152505050565b60006104b46104af84610461565b610446565b9050828152602081018484840111156104d0576104cf6103d0565b5b6104db848285610492565b509392505050565b600082601f8301126104f8576104f76103cb565b5b81356105088482602086016104a1565b91505092915050565b600067ffffffffffffffff82111561052c5761052b6103e6565b5b610535826103d5565b9050602081019050919050565b600061055561055084610511565b610446565b905082815260208101848484011115610571576105706103d0565b5b61057c848285610492565b509392505050565b600082601f830112610599576105986103cb565b5b81356105a9848260208601610542565b91505092915050565b6000806000606084860312156105cb576105ca610363565b5b60006105d9868287016103b6565b935050602084013567ffffffffffffffff8111156105fa576105f9610368565b5b610606868287016104e3565b925050604084013567ffffffffffffffff81111561062757610626610368565b5b61063386828701610584565b9150509250925092565b60008115159050919050565b6106528161063d565b82525050565b600060208201905061066d6000830184610649565b92915050565b6000819050919050565b61068681610673565b811461069157600080fd5b50565b6000813590506106a38161067d565b92915050565b600080604083850312156106c0576106bf610363565b5b60006106ce85828601610694565b925050602083013567ffffffffffffffff8111156106ef576106ee610368565b5b6106fb85828601610584565b9150509250929050565b61070e8161038d565b82525050565b60006020820190506107296000830184610705565b92915050565b60006020828403121561074557610744610363565b5b600082013567ffffffffffffffff81111561076357610762610368565b5b61076f84828501610584565b91505092915050565b61078181610673565b82525050565b600060ff82169050919050565b61079d81610787565b82525050565b60006060820190506107b86000830186610778565b6107c56020830185610778565b6107d26040830184610794565b949350505050565b6000602082840312156107f0576107ef610363565b5b600082013567ffffffffffffffff81111561080e5761080d610368565b5b61081a848285016104e3565b91505092915050565b60006020820190506108386000830184610778565b92915050565b60006020828403121561085457610853610363565b5b600061086284828501610694565b91505092915050565b60006080820190506108806000830187610778565b61088d6020830186610794565b61089a6040830185610778565b6108a76060830184610778565b95945050505050565b600082825260208201905092915050565b7f496e76616c6964207369676e6174757265206c656e6774680000000000000000600082015250565b60006108f76018836108b0565b9150610902826108c1565b602082019050919050565b60006020820190508181036000830152610926816108ea565b9050919050565b7f4e487b7100000000000000000000000000000000000000000000000000000000600052601160045260246000fd5b600061096782610787565b915061097283610787565b9250828201905060ff81111561098b5761098a61092d565b5b92915050565b7f496e76616c6964207369676e61747572652076616c7565000000000000000000600082015250565b60006109c76017836108b0565b91506109d282610991565b602082019050919050565b600060208201905081810360008301526109f6816109ba565b9050919050565b600081519050919050565b600081905092915050565b60005b83811015610a31578082015181840152602081019050610a16565b60008484015250505050565b6000610a48826109fd565b610a528185610a08565b9350610a62818560208601610a13565b80840191505092915050565b6000610a7a8284610a3d565b915081905092915050565b7f19457468657265756d205369676e6564204d6573736167653a0a333200000000600082015250565b6000610abb601c83610a08565b9150610ac682610a85565b601c82019050919050565b6000819050919050565b610aec610ae782610673565b610ad1565b82525050565b6000610afd82610aae565b9150610b098284610adb565b6020820191508190509291505056fea2646970667358221220e006c9fae4c153211212fca979f50a021bf105e7242634e7e9adc2883b69a03964736f6c634300081c0033",
  "devdoc": {
    "kind": "dev",
    "methods": {},
    "version": 1
  },
  "userdoc": {
    "kind": "user",
    "methods": {},
    "version": 1
  },
  "storageLayout": {
    "storage": [],
    "types": null
  }
}